{
  "_format": "hh-sol-artifact-1",
  "contractName": "SampleMarket",
  "sourceName": "contracts/SampleMarket.sol",
  "abi": [
    {
      "inputs": [
        {
          "internalType": "address",
          "name": "_treasury",
          "type": "address"
        }
      ],
      "stateMutability": "nonpayable",
      "type": "constructor"
    },
    {
      "inputs": [],
      "name": "FEE_BP",
      "outputs": [
        {
          "internalType": "uint256",
          "name": "",
          "type": "uint256"
        }
      ],
      "stateMutability": "view",
      "type": "function"
    },
    {
      "inputs": [
        {
          "internalType": "uint256",
          "name": "id",
          "type": "uint256"
        },
        {
          "internalType": "string",
          "name": "cid",
          "type": "string"
        },
        {
          "internalType": "uint256",
          "name": "price",
          "type": "uint256"
        }
      ],
      "name": "addSample",
      "outputs": [],
      "stateMutability": "nonpayable",
      "type": "function"
    },
    {
      "inputs": [
        {
          "internalType": "address",
          "name": "",
          "type": "address"
        },
        {
          "internalType": "uint256",
          "name": "",
          "type": "uint256"
        }
      ],
      "name": "bought",
      "outputs": [
        {
          "internalType": "bool",
          "name": "",
          "type": "bool"
        }
      ],
      "stateMutability": "view",
      "type": "function"
    },
    {
      "inputs": [
        {
          "internalType": "uint256",
          "name": "id",
          "type": "uint256"
        }
      ],
      "name": "buy",
      "outputs": [],
      "stateMutability": "payable",
      "type": "function"
    },
    {
      "inputs": [
        {
          "internalType": "address",
          "name": "user",
          "type": "address"
        },
        {
          "internalType": "uint256",
          "name": "id",
          "type": "uint256"
        }
      ],
      "name": "canDownload",
      "outputs": [
        {
          "internalType": "bool",
          "name": "",
          "type": "bool"
        }
      ],
      "stateMutability": "view",
      "type": "function"
    },
    {
      "inputs": [
        {
          "internalType": "uint256",
          "name": "",
          "type": "uint256"
        }
      ],
      "name": "samples",
      "outputs": [
        {
          "internalType": "address payable",
          "name": "uploader",
          "type": "address"
        },
        {
          "internalType": "uint256",
          "name": "price",
          "type": "uint256"
        },
        {
          "internalType": "string",
          "name": "cid",
          "type": "string"
        },
        {
          "internalType": "bool",
          "name": "exists",
          "type": "bool"
        }
      ],
      "stateMutability": "view",
      "type": "function"
    },
    {
      "inputs": [],
      "name": "treasury",
      "outputs": [
        {
          "internalType": "address",
          "name": "",
          "type": "address"
        }
      ],
      "stateMutability": "view",
      "type": "function"
    }
  ],
  "bytecode": "0x60a06040523480156200001157600080fd5b506040516200123b3803806200123b8339818101604052810190620000379190620000dc565b8073ffffffffffffffffffffffffffffffffffffffff1660808173ffffffffffffffffffffffffffffffffffffffff1681525050506200010e565b600080fd5b600073ffffffffffffffffffffffffffffffffffffffff82169050919050565b6000620000a48262000077565b9050919050565b620000b68162000097565b8114620000c257600080fd5b50565b600081519050620000d681620000ab565b92915050565b600060208284031215620000f557620000f462000072565b5b60006200010584828501620000c5565b91505092915050565b60805161110a62000131600039600081816102b101526106d5015261110a6000f3fe6080604052600436106100705760003560e01c8063af8317681161004e578063af8317681461011d578063c74f601814610148578063cc5f17a614610171578063d96a094a146101ae57610070565b806307e721291461007557806361d027b3146100b557806374f5fd5e146100e0575b600080fd5b34801561008157600080fd5b5061009c600480360381019061009791906107e7565b6101ca565b6040516100ac949392919061090f565b60405180910390f35b3480156100c157600080fd5b506100ca6102af565b6040516100d7919061097c565b60405180910390f35b3480156100ec57600080fd5b50610107600480360381019061010291906109c3565b6102d3565b6040516101149190610a03565b60405180910390f35b34801561012957600080fd5b50610132610302565b60405161013f9190610a1e565b60405180910390f35b34801561015457600080fd5b5061016f600480360381019061016a9190610a9e565b610308565b005b34801561017d57600080fd5b50610198600480360381019061019391906109c3565b61048b565b6040516101a59190610a03565b60405180910390f35b6101c860048036038101906101c391906107e7565b6104f3565b005b60006020528060005260406000206000915090508060000160009054906101000a900473ffffffffffffffffffffffffffffffffffffffff169080600101549080600201805461021990610b41565b80601f016020809104026020016040519081016040528092919081815260200182805461024590610b41565b80156102925780601f1061026757610100808354040283529160200191610292565b820191906000526020600020905b81548152906001019060200180831161027557829003601f168201915b5050505050908060030160009054906101000a900460ff16905084565b7f000000000000000000000000000000000000000000000000000000000000000081565b60016020528160005260406000206020528060005260406000206000915091509054906101000a900460ff1681565b6101f481565b60008085815260200190815260200160002060030160009054906101000a900460ff161561036b576040517f08c379a000000000000000000000000000000000000000000000000000000000815260040161036290610bbe565b60405180910390fd5b60405180608001604052803373ffffffffffffffffffffffffffffffffffffffff16815260200182815260200184848080601f016020809104026020016040519081016040528093929190818152602001838380828437600081840152601f19601f8201169050808301925050505050505081526020016001151581525060008086815260200190815260200160002060008201518160000160006101000a81548173ffffffffffffffffffffffffffffffffffffffff021916908373ffffffffffffffffffffffffffffffffffffffff1602179055506020820151816001015560408201518160020190816104619190610db9565b5060608201518160030160006101000a81548160ff02191690831515021790555090505050505050565b6000600160008473ffffffffffffffffffffffffffffffffffffffff1673ffffffffffffffffffffffffffffffffffffffff168152602001908152602001600020600083815260200190815260200160002060009054906101000a900460ff16905092915050565b600080600083815260200190815260200160002090508060030160009054906101000a900460ff1661055a576040517f08c379a000000000000000000000000000000000000000000000000000000000815260040161055190610ed7565b60405180910390fd5b806001015434146105a0576040517f08c379a000000000000000000000000000000000000000000000000000000000815260040161059790610f43565b60405180910390fd5b600160003373ffffffffffffffffffffffffffffffffffffffff1673ffffffffffffffffffffffffffffffffffffffff168152602001908152602001600020600083815260200190815260200160002060009054906101000a900460ff161561063e576040517f08c379a000000000000000000000000000000000000000000000000000000000815260040161063590610faf565b60405180910390fd5b60006127106101f4346106519190610ffe565b61065b919061106f565b90508160000160009054906101000a900473ffffffffffffffffffffffffffffffffffffffff1673ffffffffffffffffffffffffffffffffffffffff166108fc82346106a791906110a0565b9081150290604051600060405180830381858888f193505050501580156106d2573d6000803e3d6000fd5b507f000000000000000000000000000000000000000000000000000000000000000073ffffffffffffffffffffffffffffffffffffffff166108fc829081150290604051600060405180830381858888f19350505050158015610739573d6000803e3d6000fd5b5060018060003373ffffffffffffffffffffffffffffffffffffffff1673ffffffffffffffffffffffffffffffffffffffff168152602001908152602001600020600085815260200190815260200160002060006101000a81548160ff021916908315150217905550505050565b600080fd5b600080fd5b6000819050919050565b6107c4816107b1565b81146107cf57600080fd5b50565b6000813590506107e1816107bb565b92915050565b6000602082840312156107fd576107fc6107a7565b5b600061080b848285016107d2565b91505092915050565b600073ffffffffffffffffffffffffffffffffffffffff82169050919050565b600061083f82610814565b9050919050565b61084f81610834565b82525050565b61085e816107b1565b82525050565b600081519050919050565b600082825260208201905092915050565b60005b8381101561089e578082015181840152602081019050610883565b60008484015250505050565b6000601f19601f8301169050919050565b60006108c682610864565b6108d0818561086f565b93506108e0818560208601610880565b6108e9816108aa565b840191505092915050565b60008115159050919050565b610909816108f4565b82525050565b60006080820190506109246000830187610846565b6109316020830186610855565b818103604083015261094381856108bb565b90506109526060830184610900565b95945050505050565b600061096682610814565b9050919050565b6109768161095b565b82525050565b6000602082019050610991600083018461096d565b92915050565b6109a08161095b565b81146109ab57600080fd5b50565b6000813590506109bd81610997565b92915050565b600080604083850312156109da576109d96107a7565b5b60006109e8858286016109ae565b92505060206109f9858286016107d2565b9150509250929050565b6000602082019050610a186000830184610900565b92915050565b6000602082019050610a336000830184610855565b92915050565b600080fd5b600080fd5b600080fd5b60008083601f840112610a5e57610a5d610a39565b5b8235905067ffffffffffffffff811115610a7b57610a7a610a3e565b5b602083019150836001820283011115610a9757610a96610a43565b5b9250929050565b60008060008060608587031215610ab857610ab76107a7565b5b6000610ac6878288016107d2565b945050602085013567ffffffffffffffff811115610ae757610ae66107ac565b5b610af387828801610a48565b93509350506040610b06878288016107d2565b91505092959194509250565b7f4e487b7100000000000000000000000000000000000000000000000000000000600052602260045260246000fd5b60006002820490506001821680610b5957607f821691505b602082108103610b6c57610b6b610b12565b5b50919050565b7f69642074616b656e000000000000000000000000000000000000000000000000600082015250565b6000610ba860088361086f565b9150610bb382610b72565b602082019050919050565b60006020820190508181036000830152610bd781610b9b565b9050919050565b7f4e487b7100000000000000000000000000000000000000000000000000000000600052604160045260246000fd5b60008190508160005260206000209050919050565b60006020601f8301049050919050565b600082821b905092915050565b600060088302610c6f7fffffffffffffffffffffffffffffffffffffffffffffffffffffffffffffffff82610c32565b610c798683610c32565b95508019841693508086168417925050509392505050565b6000819050919050565b6000610cb6610cb1610cac846107b1565b610c91565b6107b1565b9050919050565b6000819050919050565b610cd083610c9b565b610ce4610cdc82610cbd565b848454610c3f565b825550505050565b600090565b610cf9610cec565b610d04818484610cc7565b505050565b5b81811015610d2857610d1d600082610cf1565b600181019050610d0a565b5050565b601f821115610d6d57610d3e81610c0d565b610d4784610c22565b81016020851015610d56578190505b610d6a610d6285610c22565b830182610d09565b50505b505050565b600082821c905092915050565b6000610d9060001984600802610d72565b1980831691505092915050565b6000610da98383610d7f565b9150826002028217905092915050565b610dc282610864565b67ffffffffffffffff811115610ddb57610dda610bde565b5b610de58254610b41565b610df0828285610d2c565b600060209050601f831160018114610e235760008415610e11578287015190505b610e1b8582610d9d565b865550610e83565b601f198416610e3186610c0d565b60005b82811015610e5957848901518255600182019150602085019450602081019050610e34565b86831015610e765784890151610e72601f891682610d7f565b8355505b6001600288020188555050505b505050505050565b7f6e6f7420666f756e640000000000000000000000000000000000000000000000600082015250565b6000610ec160098361086f565b9150610ecc82610e8b565b602082019050919050565b60006020820190508181036000830152610ef081610eb4565b9050919050565b7f77726f6e67207072696365000000000000000000000000000000000000000000600082015250565b6000610f2d600b8361086f565b9150610f3882610ef7565b602082019050919050565b60006020820190508181036000830152610f5c81610f20565b9050919050565b7f616c726561647920626f75676874000000000000000000000000000000000000600082015250565b6000610f99600e8361086f565b9150610fa482610f63565b602082019050919050565b60006020820190508181036000830152610fc881610f8c565b9050919050565b7f4e487b7100000000000000000000000000000000000000000000000000000000600052601160045260246000fd5b6000611009826107b1565b9150611014836107b1565b9250828202611022816107b1565b9150828204841483151761103957611038610fcf565b5b5092915050565b7f4e487b7100000000000000000000000000000000000000000000000000000000600052601260045260246000fd5b600061107a826107b1565b9150611085836107b1565b92508261109557611094611040565b5b828204905092915050565b60006110ab826107b1565b91506110b6836107b1565b92508282039050818111156110ce576110cd610fcf565b5b9291505056fea26469706673582212201f271a12514e251e2f75735b51321d43dfbd2fa6bcd826c83ce1780ead7498c264736f6c63430008180033",
  "linkReferences": {},
  "deployedLinkReferences": {}
}